:020000040000FA
:1000000000000420E5030000F10300005902000095
:10001000F5030000650200006B0200000000000014
:1000200000000000000000000000000021030000AC
:10003000FD03000000000000B9030000C903000038
:10004000692900001D2A00000304000003040000C9
:100050000304000003040000030400000304000084
:100060000304000003040000012D0000552A0000D5
:10007000030400003D2A000003040000592400008E
:100080000304000003040000030400000304000054
:100090000304000003040000030400000304000044
:1000A0000304000003040000030400000304000034
:1000B0000304000003040000000000000000000032
:1000C0000304000003040000030400000304000014
:1000D0000304000003040000030400000304000004
:1000E00003040000030400000304000000000000FB
:1000F00000000000030400000000000003040000F2
:1001000000F002F806F096F80AA090E8000C82448D
:100110008344AAF10107DA4501D106F08BF8AFF26A
:10012000090EBAE80F0013F0010F18BFFB1A43F0D5
:1001300001031847CC0B0100EC0B01000A4410F836
:10014000014B14F00F0508BF10F8015B240908BF2C
:1001500010F8014B6D1E05D010F8013B6D1E01F823
:10016000013BF9D1641E03D0641E01F8015BFBD191
:100170009142E4D3704700000023002400250026AC
:10018000103A28BF78C1FBD8520728BF30C148BFFA
:100190000B6070476E2900F00B83702900F0F1832B
:1001A00066290FF0348665290FF0318667290FF034
:1001B0002E8661290FF02D8603681B0A28BF41F0A7
:1001C0008001692900F0B882642900F0B5827529A0
:1001D00000F0B2826F2900F07F83782900F0BD83A0
:1001E000E92901F0E582E42901F0E282F52901F034
:1001F000DF82EF2900F07C83F82900F0BC830368DC
:10020000DB0928BF41F08001632901F0AE82732928
:1002100001F0B382E32901F0BE82F32901F0C38229
:10022000002070471FB50FF0E0FD9DE8030000F0CF
:10023000C2FF00F0A3FF0400002000210EF08AFF9F
:10024000401C6060002000210EF09AFFE06001F089
:1002500085FC00F077FF1FBD4FF0100308E04FF062
:10026000200305E04FF0300302E04FF0400300BFF1
:10027000EFF308804FF0040172460A4201D0EFF319
:1002800009809C46254B196802680A60043142685F
:100290000A60043182680A600431C2680A6004316D
:1002A000F0C147460F6004314F460F600431574696
:1002B0000F6004315F460F60043102690A60083143
:1002C00042690A60043182690A600431C2690A60C5
:1002D0000431034620334FF40076324200D0043319
:1002E00075464FF01006354200D148330C46103C9D
:1002F0002360EFF309820A600431EFF308820A6099
:10030000043172460A600431EFF314820A606046D9
:10031000024B196808F010F8FEE70000BC05010068
:100320001EF0040F0CBFEFF30880EFF30980816922
:1003300011F8021C91BB01B590E80F10E047BDE831
:1003400000508CE80300244B93E80600914208BF5C
:10035000704741B91EF0100F10D12049086820F0F5
:10036000010008600AE02CE9F00F1EF0100F08BF32
:100370002CED108AC1F838C081F822E01A6092F89A
:100380002210906B61F0FF0E1EF0100F08BFB0EC52
:10039000108AB0E8F00F80F309887047104A13689C
:1003A0009942FAD801B552F821C00FC8E047BDE81C
:1003B0000050CCF80000704701B50AF057F9BDE8CD
:1003C0000140EFF3098CBEE701B50AF0C1FBBDE8BF
:1003D0000140EFF3098CB6E78402002034EF00E01F
:1003E000D405010007488047074880470748004771
:1003F000FEE7FEE7FEE7FEE7FEE7FEE7FEE7FEE7D5
:10040000FEE7FEE7412B000095950000010100008A
:100410007047000010B500F0B1FE001D10BD00BF18
:1004200035ED000005F02EBF0844401E491E8843EC
:1004300070470821001DF7E72DE9F04117460E46E9
:100440000446FFF7F6FFA042054633D9002F1CBF34
:1004500006F10C0005F06CFF30467468F4B12168B9
:10046000A94217D305F1080291423CBF616841607F
:1004700007D3626861194A602268521B0A604160B2
:100480002560002F1CBF06F10C0005F0D1FF201DD8
:10049000BDE8F08120466468002CE0D12946304652
:1004A00000F075FE0028D7D1002F1CBF06F10C000C
:1004B00005F0BEFF0020BDE8F08110B5044600F055
:1004C00058FE01682046BDE810400122B4E770B52F
:1004D00016460D46041F002808BF70BD002E1CBF25
:1004E00005F10C0005F024FF2B465868002818BFC2
:1004F000A04238BF0346F8D31968CA18A24218BFF1
:100500005C6003D122681C461144196021680A19F5
:10051000824218BF606004D142686260006808448B
:100520002060002E1CBF05F10C0005F081FF70BD9E
:1005300010B5044600F01DFE01682046BDE81040DD
:100540000122C4E753EA020C00F069802DE9F04B68
:100550004FF00006002B1FBFB3FA83F503FA05F432
:1005600024FA05F65E4012BF1643B2FA82F502FA8B
:1005700005F4C5F120051EBF22FA05FC44EA0C046F
:10058000203556EA044C4FEA144418BF641C4FF05F
:1005900000084FF00009904271EB030C39D3002999
:1005A00019BFB1FA81F701FA07F6B0FA80F700FA3D
:1005B00007F6C7F120071EBF20FA07FC46EA0C0623
:1005C0002037B6FBF4FCA7EB0507103F07F01F0B25
:1005D000CBF120062CFA06F60CFA0BFB44BFB3460F
:1005E0000026202FA4BF5E464FF0000B5BEA060CEE
:1005F00008BF4FF0010B19EB0B0948EB0608ABFBEA
:10060000027C06FB02CC0BFB03CCC01B71EB0C0184
:10061000C1E70B46024641464846BDE8F08B13B59C
:10062000084318BF4FF0FF300146AFF30080BDE82C
:100630001C4070470B460146184601F0CBBD000038
:100640007CB51D4616460C00009001D02044401E8B
:10065000074B7B442A4669460190304601F05BF81F
:1006600005461CB10020694601F068F828467CBDAB
:10067000F110000070B5044685690068C10601D517
:10068000302600E02026C00707D070BDD4E9012144
:1006900030469047206A401C20626D1EF6D570BD22
:1006A00070B5044685690078C00707D170BDD4E9EC
:1006B000012120209047206A401C20626D1EF6D543
:1006C00070BD09684A0501D540B27047C905FCD51F
:1006D00000B2704709684A0501D5C0B27047C90524
:1006E000FCD580B2704770B50C460546012A05D08E
:1006F0002878800600D5EA69002302E0012305E09E
:100700005B1C934202D2E05C0028F9D1A869E6188C
:10071000C01AA861286A184428622846FFF7AAFF71
:1007200004E0D5E9012114F8010B9047B442F8D355
:100730002846FFF7B5FF70BD2DE9F04106460024BD
:1007400010687529314616A510D0FFF7BAFF0028AA
:1007500002DA404213A507E031688A0701D512A5E5
:1007600002E0490704D511A5012401E0FFF7B2FF1B
:1007700000210A2206F1240709E0B0FBF2FCB0FBDD
:10078000F2F302FB1C00303078541846491C002854
:10079000F3D123462A463046BDE8F04100F04EBD75
:1007A000000000002D0000002B00000020000000D1
:1007B00011680268006A530501D508700AE0D30584
:1007C00001D5088006E0130603D5C217C1E900026F
:1007D00000E00860012070472DE9FF5F15468A465A
:1007E0000446DFF8AC80F8440027D8E900103E4604
:1007F000CDE9001010E03AF816106A4602A801F0A0
:1008000091FA411C07D02178890603D5E26939188D
:1008100091420DD80744761C2078800602D5E06905
:10082000B84205DDAE42E6DB3AF816000028E2D118
:10083000A069C01BA0612046FFF71CFFD8E900108B
:10084000CDE90010002017E03AF818106A4602A817
:1008500001F068FAB0F1FF3F81460BD000250DF1A1
:10086000080B05E0D4E901211BF8050090476D1C39
:100870004D45F7D308F10100B0428046E4DB206A21
:10088000384420622046FFF70BFFBDE8FF9F0000C1
:100890001EF7000030B4002100F1240408E002F04B
:1008A0000705D208303542EA4372DB086554491C1B
:1008B00052EA0305F3D10468002310A2250708D5E6
:1008C00004F020040C4304D0C46901230CA2641E6C
:1008D000C46130BC00F0B2BC10B5044621461068BB
:1008E000FFF7F8FE02462046BDE810400023D1E79E
:1008F000D21D22F00701D1E90023CBE70000000060
:1009000030000000F0B40D460188090502D5214CE5
:100910007C4402E01F4C7C440E34002100F124068C
:1009200008E002F00F071209E75D42EA03721B09B3
:100930007754491C52EA0307F3D1027800231207C7
:1009400004D5702D06D009B1022311342246F0BC23
:1009500000F074BC01231034F8E770B504460D466E
:1009600021461068FFF7B6FE024629462046BDE83C
:1009700070400023C6E7D21D22F00703D3E900230D
:10098000C0E70368126843F0200303600823C361D3
:100990000023B7E7FCF500002DE9F05F8946044627
:1009A0004FF0000ADFF874B1FB44C0F820A02046E5
:1009B000E1688847002874D0252806D0D4E90121B1
:1009C0009047206A401C2062F1E700265F462046DF
:1009D000E16888472028054607DB312D05D27819C4
:1009E00010F8200C08B10643F1E7B00701D526F056
:1009F0000406C4F81CA00027C4F818A02A2D09D0AA
:100A000028460EF04FFB38B304EB8708303DC8F89A
:100A1000185019E059F8041B204604EB8702916135
:100A2000E1688847012F054618D1E069002820DADF
:100A300026F020061DE0D8F8180000EB800005EB3A
:100A400040003038C8F818002046E168884705465D
:100A50000EF028FB0028EED1012F0AD02E2D08D150
:100A60002046E16888477F1C0546022F46F0200695
:100A7000C4DBA069002803DA404246F00106A06109
:100A8000F00701D026F010066C2D0BD0682D09D090
:100A90004C2D39D06A2D35D0742D35D07A2D33D0E8
:100AA00016E038E0E1682F4620468847B842054600
:100AB00009D16C2F26D04FF48060E16806432046B0
:100AC0008847054604E06C2F1AD04FF48070064327
:100AD0000DB3A5F14100192802D8203546F400666F
:100AE0004A462946204626604E46FFF753FB80B112
:100AF00001280BD0F61D26F0070000F1080956E783
:100B00004020E4E78020D8E70020D6E706F104097A
:100B10004DE7284652E7206ABDE8F09F8CF50000BB
:100B20002DE9F041044616460D464769007B8007D3
:100B30002ED0384605F0A6FC50BB3EB3012E02D0A5
:100B4000022E25D104E0204600F066F805441DE0A1
:100B5000384605F083FCE168002841F01001E160AF
:100B600005DA204600F04EFF0120BDE8F081C90300
:100B70000BD56268E16A914200D81146A26911441E
:100B80002269891A814200DD08460544002D01DAF8
:100B90000220EAE7E16A6068E268814206D29103D6
:100BA000E06203D522F4003141F01002A66900276B
:100BB000AE4213DCE16A814201D90B4600E00346F4
:100BC00003EB060C2369ACEB030CAC4506DD81425C
:100BD00001D98C4600E084469C4505D1A76027607A
:100BE00042F02000A5620DE0AD1BE669AE1B81421C
:100BF000A66000D90846C01A281A206058196060FB
:100C000022F0200003490840E060002084F848708A
:100C1000ABE70000BFCFD7FF10B50146C268900711
:100C200003D0900607D5886A0AE0FFF7FBFB012195
:100C30000160881E10BD8B69486818440B69C01A92
:100C400091F848301BB191F84910401A10BD1103BA
:100C5000FCD50028FADD401E10BD11B14FF48072A2
:100C600001E04FF480624FF4007300F043BF2DE9C0
:100C7000F04704464FF000094FF0FF37C568D4E94C
:100C80000486A80707D0204600F0F0FE304605F0A5
:100C9000DFFB002802DA3846BDE8F087280502D5D8
:100CA0004046FFF745FC4C21204600F0E2F9206D5C
:100CB00020F0010020654846EEE7000070B50546CB
:100CC0000A4E304605F034FB05F14C04204605F091
:100CD0002FFB2846FFF7CBFF0546204605F0A8FB73
:100CE000304605F0A5FB284670BD00000C02002030
:100CF0002DE9F04116460F46054600F14C0420460A
:100D000005F016FB324639462846FFF709FF05462F
:100D1000204605F08DFB2846BDE8F0812DE9F0471F
:100D200016468846070010D006F14C00814605F0B3
:100D3000FFFA3046FFF79BFF18F8010B61280DD032
:100D4000722805D0772841D105E00020BDE8F08762
:100D50000125002405E00225042402E0082448F2CD
:100D6000020518F8010B2B2806D0622809D018F8C4
:100D7000010C74280AD00BE045F0030544F002048E
:100D8000EFE745F0040544F00104EAE744F01004FD
:100D90003846214605F07AFB411C17D0002131610D
:100DA00071604FF40071F560F1617061200704D546
:100DB000304602220021FFF7B3FE306D40F0010003
:100DC0003065484605F034FB3046BFE70026F8E7BB
:100DD0002DE9F04115460E460746214C204605F008
:100DE000A7FA2A4631463846FFF798FF05462046BF
:100DF00005F01EFB2846BDE8F0812DE9F0410E46C6
:100E00008046174D284605F093FA164C206DC10711
:100E100004D0410804D020F00104F7E7224612E094
:100E20005420FFF74AFB070017D0206D47F001015F
:100E3000084354212065384600F01BF907F14C00A7
:100E400005F0A4FA3A4631464046FFF767FF0446EC
:100E5000284605F0EDFA2046CDE70024F8E700002B
:100E60000C0200204403002010B5002000F07EFF9B
:100E7000AFF30080BDE81040012005F0EDBA30B5B9
:100E800003461D783DB10A4612F8014B1CB1AC4235
:100E9000FAD15B1CF5E7181A30BD40EA010310B522
:100EA0009B070FD1042A0DD310C808C9121F9C42FA
:100EB000F8D020BA19BA884201D9012010BD4FF0EC
:100EC000FF3010BD1AB1D30703D0521C07E0002039
:100ED00010BD10F8013B11F8014B1B1B07D110F896
:100EE000013B11F8014B1B1B01D1921EF1D1184699
:100EF00010BD10B5431C02E010F8011B71B1810751
:100F0000FAD14FF0013202C88C1A8C4314EAC21194
:100F1000F9D0C01A0A0603D0C01E10BDC01A10BDF9
:100F20000A0401D0801E10BD0902FCD0401E10BD75
:100F3000032A40F2308010F0030C00F0158011F805
:100F4000013BBCF1020F624498BF11F801CB00F8DD
:100F5000013B38BF11F8013BA2F1040298BF00F831
:100F600001CB38BF00F8013B11F0030300F02580EE
:100F7000083AC0F0088051F8043B083A51F804CB15
:100F8000A0E80810F5E7121D5CBF51F8043B40F8DB
:100F9000043BAFF30080D20724BF11F8013B11F8E6
:100FA00001CB48BF11F8012B24BF00F8013B00F82A
:100FB00001CB48BF00F8012B704710B5203AC0F0B4
:100FC0000B80B1E81850A0E81850B1E81850A0E81C
:100FD0001850203ABFF4F5AF5FEA027C24BFB1E8B5
:100FE0001850A0E8185044BF18C918C0BDE81040F8
:100FF0005FEA827C24BF51F8043B40F8043B08BF01
:101000007047D20728BF31F8023B48BF11F8012BC7
:1010100028BF20F8023B48BF00F8012B704702F0C0
:10102000FF0343EA032242EA024200F024B84FF0F1
:1010300000020429C0F0128010F0030C00F01B80A5
:10104000CCF1040CBCF1020F18BF00F8012BA8BFB3
:1010500020F8022BA1EB0C0100F00DB85FEAC17C77
:1010600024BF00F8012B00F8012B48BF00F8012B2A
:1010700070474FF0000200B513469446964620395B
:1010800022BFA0E80C50A0E80C50B1F12001BFF441
:10109000F7AF090728BFA0E80C5048BF0CC05DF8A7
:1010A00004EB890028BF40F8042B08BF704748BFF5
:1010B00020F8022B11F0804F18BF00F8012B704769
:1010C00030B44FF0013C50F8042B51F8043BCCFAFB
:1010D00052F4D51A20D1FCB950F8042B51F8043B36
:1010E000CCFA52F4D51A17D1B4B950F8042B51F8F0
:1010F000043BCCFA52F4D51A0ED16CB950F8042B3B
:1011000051F8043BCCFA52F4D51A05D1002CDAD0B0
:1011100030BC4FF00000704729BAB1FA81F111F0EC
:101120001801D1F120008440F2D1CA40CB4012F026
:10113000FF0213F0FF0330BCD01A704770477047AE
:101140007047000070B5064C7C44064D7D4404E0B9
:101150002046016808448047241DAC42F8D170BD88
:1011600014FD000020FD00000048704740040020EE
:10117000704710B5FFF7F8FF083010BD10B5FFF746
:10118000F3FF203010BD704770477047704738B587
:1011900004460A4600206946AFF30080002808BFD5
:1011A00038BD02460099204600F0EEFD012038BD12
:1011B000012001F0C6B8F8B5AFF300800546002065
:1011C0000C46102000BF0646A819A0420DD9324691
:1011D00069460020AFF30080070008BF01F0B1F8B6
:1011E0000098A04218BF0546C419FFF7C2FF05606A
:1011F0000746F01D20F007004619284600F00AF8BF
:10120000B44208BFF8BDA21B31463868BDE8F840BB
:1012100000F0BABD00210160C0E901100C3005F0FA
:10122000B5B81020704710B5FFF7FCF8006810BD86
:1012300010B50446FFF7F6F8046010BD2DE9F0473D
:101240000D4699469246044600F124080168880636
:1012500004D5E06921F01001216000E00120A842DE
:1012600001DD471B00E00027A1697A1902EB0900A4
:10127000081AA0612078C00602D42046FFF7FAF9C8
:10128000002608E0D4E901211AF806009047206AF8
:10129000401C761C20624E45F4DB2078C0060AD53F
:1012A0002046FFF7E7F906E0D4E901213020904716
:1012B000206A401C2062381EA7F10107F4DC07E019
:1012C000D4E9012118F805009047206A401C2062EB
:1012D000281EA5F10105F3DC2046FFF7E1F920788F
:1012E000000602D50220BDE8F0870120FBE72DE9CA
:1012F000FF4F0C461E464FF0FF378BB0D2E900017E
:10130000DDF860800A908A46C1F30A5505B93D466A
:10131000002108464FF00000BAF1000F00F4400031
:1013200005DA00EB80004FF4400101EA50004FEA7B
:101330009059B9F1010F00DDB9460A9850EA4A0008
:101340000ED044F61050A5F2FF3545432F14B8F1E6
:10135000000F1ED07542291E1EDDC9F100021CE0DF
:10136000B8F1010F4FF0000001D0302103E0F2434B
:1013700005E02154401CB042FBDB30460022002136
:1013800021540B99C1F80880C1E900200FB0BDE8D5
:10139000F08FBD1B6D1CDEE74A4600DA694206A8E5
:1013A00000F038FF06AB93E8070003AB83E80700C3
:1013B00050460A990CF013F88DE80700A0F500508C
:1013C0001F3800900398002D0ADD42F21F014A46A3
:1013D0000844002303A9039068460CF07CFA09E056
:1013E000A0F500504A461F38002303A90390684621
:1013F0000CF086FA8DE807000004000C03D04FF0D3
:10140000FF30410800E01046B8F1000F03D0002281
:10141000009215461EE0751E05D400F0D7FC303250
:1014200062556D1EF9D5B3460122084302D0002251
:101430007F1C04E02078302801D100227F1E002A82
:10144000099784D01DE0112D07DA00F0BFFC30327F
:1014500062556D1C50EA0102F5D1084302D0009894
:10146000C8B10EE00021681E05E0235C625C635495
:101470002254401E491C8142F7DBAB46A81B401E8C
:101480000990002004F80B000B98099AC0F8088016
:10149000C0E9002B7AE711264FF0000857E72DE945
:1014A000F04F88460446D21D22F0070191B0D1E9E1
:1014B0000001CDE90A010CF05AFB02460B98C00F5F
:1014C00001D02D2007E02068810701D52B2002E004
:1014D000202101EAC000032A099001D0072A05DB78
:1014E00003464146204600F035FE0BE12078800699
:1014F00001D5E06900E00620B8F1650F814606D00D
:10150000B8F1660F18D0B8F1670F70D131E0002044
:10151000B9F1110F009001DB112301E009F1010382
:101520000AAA01A90CA8FFF7E2FEDDE90C7000266B
:1015300009F10105834647E001204B4600904FF03A
:1015400000470AAA01A90CA8FFF7D1FEDDE90DB0FA
:101550000C995D46002610B909F101000D18B9EB90
:10156000050003D4C0F1FF3609F10105A5EB090020
:101570002BE0B9F1010F01DA4FF001090020B9F1B8
:10158000110F0090484601DD112300E003460AAA2E
:1015900001A90CA8FFF7ABFEDDE90C704D46002653
:1015A0008346207800070AD4AB4500DA5D4601A8DF
:1015B000012D04DD411911F8011C302907D04F45D8
:1015C00002DA17F1040F04DA012082460FE06D1EE3
:1015D000EEE7002F02DCED1B3E4403E0781CA8423E
:1015E00000DD7D1CB81B00F1010A4FF00047207898
:1015F000000703D4AA4501DB4FF0FF3A0021B7F101
:10160000004F0DF143088DF8431024D002202B2306
:10161000002F01DA7F422D230A21021EA0F10100D2
:1016200000DC5FB197FBF1FC97FBF1F201FB1C7C46
:1016300017460CF1300C08F801CDEEE7A8F10100D7
:1016400003702188090501D5452100E06521A0F13D
:10165000010800F8011C09980FA9A1EB0807FF1D5C
:1016600000B10120411901EBEA70A1693844081A60
:10167000401EA0612078C00602D42046FEF7FAFF83
:10168000099828B1D4E901219047206A401C2062C2
:101690002078C00622D52046FEF7ECFF1EE0002E83
:1016A00004DBB34502DD01A8805D00E03020D4E911
:1016B00001219047206A401C2062761CAAF101009B
:1016C0005FEA000A0AD1FFF759FDC0680168405C73
:1016D000D4E901219047206A401C2062281EA5F110
:1016E0000105DCDC07E0D4E9012118F8010B904783
:1016F000206A401C2062381EA7F10107F3DC204657
:10170000FEF7CEFF032011B041E6000001694A1C3C
:1017100002610878704700B58FB0CDE90131002132
:10172000059105497944CDE9031011466846FFF754
:1017300033F90FB000BD0000E5FFFFFF0A6802F8B3
:10174000010B0A607047D1E900239A4202D2531C70
:101750000B601070704710B5436913B1AFF3008090
:1017600001E0FEF7C0FF012010BD127800F1240156
:101770000A7000224A700122EDE711684FF0FF3233
:10178000E9E710B5436913B1AFF3008001E0FFF75B
:1017900023F8012010BD128800F124018284002268
:1017A000C2840122EDE711684FF0FF32E9E7000043
:1017B0002DE9F0418046D21D22F007020025D2E932
:1017C0000002F52915A614D0011E72F1000106DAF7
:1017D0000023D0EB030063EB020211A608E0D8F867
:1017E00000108B0701D50FA602E0490701D50EA610
:1017F00001251146002408F1240704E000F0E6FA70
:1018000030323A55641C50EA0102F7D12B46324679
:1018100021464046BDE8F041FFF710BD0000000042
:101820002D0000002B000000200000002DE9F047F3
:1018300005460C46C86820F4201040F48000C860BB
:10184000800602D5084600F034F9E06841F28201D2
:101850004FF0FF390140022903D0204600F0D2F8B2
:10186000B5E000F42041B1F5004F0FD1C00306D51B
:101870006168E06A884200D80846606006E0206936
:10188000E0626060606904F0E9FDA061A068002288
:10189000EEB200280DDAE1688B050AD4C043A060DF
:1018A00041F490302260E0606068411C6160067025
:1018B000A5E0E0689046226040F40050E0602069B6
:1018C00068BB606904F0DEFD012704F12405A0B1C6
:1018D000A08910F4407F08D0E069FEF7EEFD20619A
:1018E00018B1E06840F4006016E0E7612561E06847
:1018F00020F4407040F480600EE0E069FEF7DDFD0A
:1019000000282061F1D0E06840F4006010F4407FCE
:10191000E06002D140F48070E06020696060E068BF
:1019200025696FF0010AC1051FD56168E06A884228
:1019300000D80846411B04D02246284600F06CF827
:10194000F0BBE068010203D5E562C4E9015854E048
:10195000691CE1626160E16940F48030491EC4E9BC
:10196000021030462E70BDE8F087010202D500F467
:1019700080320AE06068411C61600670E0680A2EEF
:1019800040F48030E06006D00022E16A6068814265
:1019900003D90B4602E00122F7E70346A7895B1B48
:1019A0007F0503D4E7699F4200DDE2B1814200D8A0
:1019B0000146E5620F1AC4E90158002B09DD00E079
:1019C00005E022461946284600F026F808B14846A8
:1019D000C9E747B1A069E5626560C01BA061E06826
:1019E00040F01000E060E068000208D56168A0697E
:1019F000E562491B08446560A0615046B3E7304684
:101A0000B1E70000C16821F4001141F08001C1601C
:101A100000218160016070472DE9F047814614463E
:101A20000E464FF0FF383248D5685769054209D055
:101A30003846A16904F060FD002811DB2C48C04342
:101A40000540E5602B4632464946384604F05AFDCB
:101A5000A16920F00042B21A11440028A16103D00C
:101A60002046FFF7CFFF4046BDE8F08770B504463B
:101A70000569C06A6168884200D80846E16821F4B7
:101A80002011E160C90312D5A84208D02246411BAB
:101A90002846FFF7C1FF10B14FF0FF3070BD0020A6
:101AA000E562C4E90150E06820F48030E060002085
:101AB00070BD10B50446C06820F02000E060A16A47
:101AC000A06988420DD02046FFF7D0FFE06820F4DF
:101AD000405040F01000E060A06AA0612069E06220
:101AE000606044F24001E0688843E06010BD00009F
:101AF000100002002DE9F04704461E4690460D46B0
:101B0000C7684C30814604F013FCB80714D0780243
:101B100012D44046B8F5807F09D0B0F5007F06D0DA
:101B2000B8F5806F08D1012604F1240506E0701E87
:101B30006FF07F41884201D3012409E02561E6610D
:101B40006560E06820F4706040EA0800E06000240E
:101B5000484604F06DFC2046BDE8F08710B56548A6
:101B60005421FFF786FA64485421FFF782FA63484C
:101B70005421FFF77EFA62485E49624A624B016077
:101B80005D4810605D4A1A60431C0B65511C01657D
:101B90000120106557484C3004F0F8FB56484C3093
:101BA00004F0F4FB55484C3004F0F0FB574804F0C7
:101BB000EDFB58484F4A56A17844FFF709F920B980
:101BC000544878440A3800F0B5FB54484A4A52A1B8
:101BD0007844FFF7FDF820B9504878440A3800F0FF
:101BE000A9FB4F48454A4CA17844FFF7F1F820B9CA
:101BF0004B4878440A3800F09DFB40233D48DC0008
:101C000000212246FFF776FF20B14248784454383D
:101C100000F090FB3848224640230021FFF76AFF7E
:101C200020B13E487844543800F084FB33482246C3
:101C300010230021FFF75EFF002806D038487844C3
:101C4000BDE81040563800F075BB10BD2B482DE99B
:101C5000F041006D2D4E20F00104304604F068FB89
:101C6000244D4C35284604F063FB2248FEF7FFFF65
:101C7000284604F0DDFB284604F068FB1E4D4C3579
:101C8000284604F055FB1C48FEF7F1FF284604F0F7
:101C9000CFFB284604F05AFB184D4C35284604F07B
:101CA00047FB1648FEF7E3FF284604F0C1FB284631
:101CB00004F04CFB14E0206D20F0010504F14C0011
:101CC000074604F035FB2046FEF7D1FF384604F006
:101CD000AFFB384604F03AFB2046FEF729FC2C46C1
:101CE000002CE8D1304604F0A3FB084804F02EFB9A
:101CF000BDE8F0814403002098030020EC0300209D
:101D00000002002004020020080200200C02002033
:101D100072000000ACE90000770000009BE90000C1
:101D200074E900002DE9F04116460C460546FEF721
:101D300071FB036893F80101012807D0FF2C12D82A
:101D4000185D80B101202C70BDE8F081D3F8070147
:101D50003246214603F20713C7182846BC46BDE8A1
:101D6000F041002360474FF0FF30EDE710B500F081
:101D7000C9FABDE8104000F0BFBA801A0844401EFE
:101D8000491E88431044704770B5144605468C467A
:101D90004368002B18BF634538BF1846F8D3026864
:101DA0001044604508D06646604604220821FFF7CB
:101DB000E4FF811B8446641A2946CCF80040BDE844
:101DC000704000220CF10400FEF781BB30B5B0F189
:101DD0000A0271F100034FEA900E4EEA817EB0EBE9
:101DE0000E0061EB91014FEA101E4EEA017E10EBEE
:101DF0000E0041EB11114FEA102E4EEA016E10EB6E
:101E00000E0041EB11214FEA104E4EEA014E10EB4D
:101E10000E0041EB1141401841F100014FEAD000A2
:101E200040EA41704FEAD1014FEA810444EA9074DC
:101E300010EB800544EB01046D1944EB0404521BC4
:101E4000A3414FF0000348BF0A3200D530BD401C0B
:101E500041F1000130BD00002DE9F04F04460D4670
:101E6000D21D22F0070089B0D0E9009748463946D4
:101E70000BF07DFE0246F80F01D02D2307E020680D
:101E8000810701D52B2302E0202101EAC0038DF850
:101E900020300BB1012000E00020032A824601D04F
:101EA000072A04DB2946204600F054F93FE1207858
:101EB000800601D40D2500E0E569C7F30A560D2D13
:101EC00049DA00214FEA175B08464FF00000002F67
:101ED00000F4400007DA00EB80004FF4400100EB13
:101EE000D07001EA60008115012901DD4FF0FF315A
:101EF00000224FEA850CBCF1180F06D31346ACF153
:101F000018004FF08052C24003E04FF4801323FAD0
:101F10000CF30CF10C0CBCF1200F04D3ACF1200C31
:101F200009FA0CF001E007FA0CF000294FF0004824
:101F300001DD18B90FE00ED140450CD319EB0209B1
:101F40005F4121B9404502D19F4329EA0209BBEB19
:101F5000175F00D0761C2088000502D57B487844A6
:101F600002E07A487844193808AA302302F80A3087
:101F7000037C0AF10101002E0AF1020A53546A4659
:101F800002DC4FF0300101E04FF031014FF0010869
:101F90008DF8001002D0A6F2FF3603E059EA47019F
:101FA00000D06B4E002D02DC2178090704D54FF0DC
:101FB00002082E218DF80110C44600210BE0C7F362
:101FC00003433F01C35C491C6D1E02F8083005291C
:101FD00008F1010801DA002DF1DC00210CE000EB32
:101FE0001973491C1B786D1E082902F808304FEA46
:101FF000091908F1010801DA002DF0DC21688B06CF
:1020000002D516E0A8F10108E04505DD02EB080362
:1020100013F8013C302BF5D0B8F1000F09DD02EBCD
:10202000080313F8013C2E2B03D1090701D4A8F1B2
:102030000108002D05DD3E2102F808106D1E08F193
:102040000108407C002E02F8080008F1010804DABB
:102050002D20764202F8080002E02B2002F808004A
:102060000A214FF47A70864208F101080BDB96FBD7
:10207000F0F3303302F8083096FBF0F308F1010872
:1020800000FB136601E0642E0CDB642096FBF0F38A
:10209000303302F8083096FBF0F308F1010800FB3A
:1020A000136601E00A2E06DB96FBF1F0303002F8F1
:1020B000080008F1010896FBF1F001FB10603030D8
:1020C00002F80800A16908F1010808EB050202EB1B
:1020D0000A00081AA0612078C00602D42046FEF744
:1020E000C9FA216A08AE01EB0A00206204E0D4E9D3
:1020F000012116F8010B9047BAF1010AF7D22078B6
:10210000C00602D52046FEF7B5FA6E4609E016F87D
:10211000010B3E280FD0D4E901219047206A401CD2
:102120002062B8F10108F2D22046FEF7B9FA09B0F0
:102130000320BDE8F08F206A2844206203E0D4E940
:102140000121302090476D1EEBD3F8E7D1E100006C
:1021500002FCFFFF2DE9F0411F46044603260168FB
:10216000072A01F4006004DB08B116A505E016A5F6
:1021700003E008B115A500E015A521F010002060CE
:10218000A069C01EA0610FB1401EA0612046FEF7ED
:1021900071FA4FB1D4E9012138469047206A401CBA
:1021A0002062C01C206206E0206AFAE7D4E901211F
:1021B00015F8010B9047761EF8D22046FEF770FA0C
:1021C000BDE8F0814E414E006E616E00494E460002
:1021D000696E66002DE9F04114460D46074601F18F
:1021E0004C06304604F0A4F8094B7B4422462946AD
:1021F0003846FFF790FA0446287B000601D54FF0D9
:10220000FF34304604F014F92046BDE8F0810000A8
:10221000DDCE00002DE9F047814616468AB03548EC
:1022200078440DC88DE80D0032487844801C03AC1A
:102230000DC884E80D0041F69B300844372190FB1F
:10224000F1F290FBF1F5A5F1800501FB12041B3CB6
:1022500002D56442012000E00020DFF898A080460B
:102260000027FA44AAF1BE0A0EE0E0070AD032467F
:10227000684607EB470101230AEB81010BF040FBA5
:102280008DE8070064107F1C002CEED1194F7F44AD
:10229000AE3F19E0E80715D007EB04100DF1180A5E
:1022A00090E80E008AE80E00C068F04201D198194B
:1022B00008903246012306A903A80BF021FB03ABCB
:1022C00083E807006D10641C002DE3D14FF001037B
:1022D00032466946B8F1000F03A802D00BF0FBFAB2
:1022E00001E00BF00DFBC9E90001C9F808200AB0B4
:1022F000BDE8F087A0DF0000002801D004F0ACB8F2
:102300007047000010B5002102A000F029F801205C
:1023100010BD0000534947414252543A2041626E79
:102320006F726D616C207465726D696E6174696F36
:102330006E00000010B500F02DF8BDE81040FFF76A
:10234000DBBF10B500F040F8BDE81040FFF7D4BF88
:1023500010B5FEF70EFF0068BDE8104000F05CB855
:1023600070B505460C460A2000E06D1C04F030F9FB
:1023700035B128780028F8D102E0641C04F028F96F
:1023800014B120780028F8D1BDE870400A2004F08C
:102390001FB9000010B5014602A0FFF7E1FF0120C0
:1023A00010BD000053494752545245443A205265EB
:1023B0006469726563743A2063616E2774206F707C
:1023C000656E3A200000000010B5012805D00021FC
:1023D00003A0FFF7C5FF012010BD09A1F8E7000029
:1023E00053494752544D454D3A204F7574206F66FE
:1023F0002068656170206D656D6F72790000000066
:102400003A2048656170206D656D6F727920636F49
:10241000727275707465640010B50C3003F096FF2D
:1024200010BD000080B540F2000240F2000145F608
:10243000A450C0F20002C0F20001C2F200009142BA
:1024400018BF08464FF60001C2F2030118BF11463B
:10245000FDF7E8FE80BD00004FF20830C4F2000036
:102460000121016042F2A520C2F200004178FF295B
:1024700006D042F2CA21C2F20001097841707047C9
:10248000FEE700004EF60450CEF200004FF000616F
:10249000016070477047000080B540F23112C8F209
:1024A000010201460AF0FEFB80BD000080B540F24B
:1024B0003812C8F201020AF0F5FB80BD80B540F287
:1024C0003312C8F201020AF0EDFB80BD80B540F284
:1024D0003212C8F201020AF0E5FB80BD80B508F0B7
:1024E000D7FB0AF0DFFA80BD2DE9F04F89B04FF03D
:1024F000000801244FF480760827CDE9068804E01F
:102500006400013F06F1040610D0B5B2284606F07B
:1025100087FF0028F4D0204606F0ACFF0028EFD05B
:10252000284606F03DFF48EA0408E9E74FF4BE708C
:1025300006F076FF40B14FF4BE7006F031FF06A8FA
:1025400048F0004806F014FF5FEA08601CD001273D
:10255000002404E00134082C4FEA470714D017EA9E
:10256000080FF7D0204606F065FF0546204606F026
:102570006BFF0646204604F037F90028EAD00246F1
:10258000284631469047E5E7B8F1FF3F02DD09B044
:10259000BDE8F08F42F2704A4FF000084FF0FF3074
:1025A000C2F2000A6C4606AD4FF00009CDE904887E
:1025B000CDE9020009E000BF4FF000094FF000082C
:1025C0005FEA09604FF00009E1D00AEB080090F8DB
:1025D0006060FF2E48D006F03F07384602A906F09B
:1025E00039FC002840D0384604F028F904F0FCF803
:1025F0000321B1EB961F834602D0BBF1000F33D00D
:102600004FEA961ABAF1030F03D1384604A906F02F
:102610002BFC384606F026FE06463846294606F0CC
:1026200019FCB11EB1FA81F14909F21E0028B2FA73
:1026300082F208BF5109012911D1BAF1030F08D163
:1026400002213846022E08BF032106F0FFFC09F1E3
:102650000109BBF1000F02D038465146D84742F27B
:10266000704AC2F2000A00BF08F10108B8F1040F75
:10267000ABD15FEA09609FD0204606F079FE0020CA
:1026800054F8201055F82020914203D1013002283F
:10269000F6D191E7DDE90010CDE90610DDE904107F
:1026A000CDE902108AE700004EF60450CEF2000099
:1026B0000068102101EA106070470000EFF31080FD
:1026C00000281CBF01207047EFF31180002818BFBD
:1026D00001207047EFF3108000281CBF01207047D5
:1026E000EFF31180002818BF01207047EFF310802E
:1026F00000281CBF01207047EFF31180002818BF8D
:1027000001207047EFF3108000281CBF01207047A4
:10271000EFF31180002818BF01207047EFF31080FD
:1027200000281CBF01207047EFF31180002818BF5C
:1027300001207047EFF30580002818BF0120704783
:10274000EFF30580002818BF01207047EFF30580E4
:10275000002818BF01207047EFF30580002818BF3C
:1027600001207047EFF30580002818BF0120704753
:10277000EFF31480012121EA00007047B0B500F0AA
:1027800095F840F27024C2F2000401256572BFF38F
:102790004F8FFFF789FF002808BFB0BDFFF772FE1B
:1027A000A572B0BD80B540F27020C2F200000021D9
:1027B0004172BFF34F8F827A12B1817200F0A0F99B
:1027C00000F07EF880BD00000844704770470000AC
:1027D00010B50446283003F083FF58B1E46A4CB1C9
:1027E000A01C03F0DBFF18B1A468002CF8D1002472
:1027F000204610BD0024204610BD000010B58446C0
:102800005CF8303F5BB191F803E0DA7872450BD2A7
:102810001A465B686BB1DC787445F9D305E0002299
:10282000C1E90122C1620DE00022C1E90132083391
:1028300003E0C1E9013200F12C031960002A18BF3E
:1028400002F1040C2830CCF8001003F081FF10BD19
:10285000D1E9012C02F10803002A08BF00F12C0382
:10286000C3F800C0D1E90112131D002A08BF00F10E
:10287000300319607047000040F20001C2F200010D
:1028800001EB8000006C704740F20002C2F20002CF
:1028900002EB80000164704780B541F27010C2F213
:1028A0000000006803F000F880BD000080B541F230
:1028B0007010C2F20000006802F062FF80BD0000EC
:1028C00080B502F097FE02F04BFF80BD80B502F0AC
:1028D000CDFF80BDB0B5B0F57A7F15D10D4602F0C1
:1028E000C5FF044601F0FAFD20462946FFF7CCFF5C
:1028F0002046FFF7C1FFA8420ED1002C02D420468B
:1029000001F082FD0020B0BD40F6333106A0C0F2D8
:102910000101342205F0B0FB40F6333106A0C0F2CD
:102920000101412205F0A8FB66726571203D3D2042
:10293000313030300000000068616E646C657220D8
:102940003D3D202849525148616E646C65725F7448
:10295000294E5649435F476574566563746F722804
:10296000697271290000000010B506F0E7FD044609
:1029700040070AD54FF4847006F0D4FD28B142F226
:102980004070C2F2000000688047A0060BD54FF4EB
:102990008A7006F0C7FD30B142F2AC70C2F200009E
:1029A00001680020884760060BD54FF48C7006F054
:1029B000B9FD30B142F2AC70C2F2000001680120F2
:1029C000884720060BD54FF48E7006F0ABFD30B172
:1029D00042F2B870C2F20000016800208847E005AA
:1029E0000BD54FF4907006F09DFD30B142F2B870F7
:1029F000C2F20000016801208847A0050DD54FF400
:102A0000927006F08FFD002808BF10BD42F2B8702A
:102A1000C2F2000001680220884710BD80B540F274
:102A20001530C2F20000007845F68C31C2F2000188
:102A300051F82000002818BF804780BD80B506F0FF
:102A4000BDFD06F0C7FD42F2A871C2F2000109689F
:102A5000884780BD4BF24010C4F200000168002995
:102A600008BF7047002101600068704780B508F01A
:102A70007FFE4FF4A27006F0E9FD002842F26D409F
:102A8000C2F2000003D10178002908BF80BD01789F
:102A900000291CBF0021017005F0A8F980BD0000CD
:102AA00080B542F2DC4143F20000C2F20001C4F200
:102AB000000005F09BF880BD80B542F2DC40C2F218
:102AC000000000F12C014FF0402005F08FF880BD90
:102AD000B0B54EF62254CEF20004FF2020702078CC
:102AE00080F0FF00B0FA80F0C0F1200503F06CFA2E
:102AF000A84228BF451CFE20A84004F8030CB0BD26
:102B00004EF60450CEF200004FF080510160704745
:102B10004EF60450CEF200004FF080510160704735
:102B2000C0064FF0200058BF6020704740F21020D0
:102B300049F20001C2F20000C0F2D03101607047DA
:102B4000B0B540F20414C4F2000404F095F820B1CA
:102B50000020A060E060C4F8340440F25825C1F2BF
:102B6000000504F097F8B0B3D5F8AC114CF2205042
:102B7000C4F200000160D5F8B0114160D5F8B4117D
:102B80008160D5F8B811C160D5F8BC110161D5F8E4
:102B9000C0114161D5F8C4110162D5F8C811416274
:102BA000D5F8CC118162D5F8D011C162D5F8D41115
:102BB0000163D5F8D8114163D5F8DC110164D5F86B
:102BC000E0114164D5F8E4118164D5F8E811C164DD
:102BD000D5F8EC11016504F06BF840B145F28C605A
:102BE00048F24811C4F20000C0F20301016003F092
:102BF000F7FF28B14FF21850C4F20000FB2101602A
:102C000003F0FCFF48B140F6E460C4F20000016844
:102C10002A68090961F31F12026003F0FDFF30B159
:102C200049F24060C4F202004FF40071016004F008
:102C300001F800284EF688551FBFD4F8FC025FEA61
:102C4000C0706FF00100C4F8FC02CEF200052968E4
:102C500041F2002041F470012960BFF34F8FC1F2AF
:102C60000000BFF36F8F016800292DD44168B1F1D6
:102C7000FF3F29DDFFF75AFF01200021C4F81404AB
:102C8000216044F8FC0C00BF20680028FCD0686F6D
:102C900040F08070686740F25C50C4F20000016848
:102CA00041F480310160016841F00301016040F2AC
:102CB0004870C5F2000040F2013101601020CEF2F0
:102CC000040000210160B0BD4EF20041C4F20101D8
:102CD0000122C1F804210A68002AFCD012220260F5
:102CE0000A68002AFCD01222426008680028FCD042
:102CF0000020C1F8040108680028FCD003F0C8F9DE
:102D000080B54AF24010C4F200004FF48031C0F8A0
:102D1000C8110021016045F6A430C2F2000000682D
:102D200045F6A031C2F20001012200280A7018BF46
:102D3000804780BD80B5930706D4D20700F12800F4
:102D400015D103F0A1FC80BD836A02F0010203EA01
:102D5000010040EA020C8842184618BF0020002AF1
:102D600008BF1846BCF1000F08BF604680BD03F0E5
:102D700077FC80BD10B540F2702CC2F2000CDCF87C
:102D80004430FBB11A698A4206D9B3FA83F24FEA9A
:102D9000521E00240BE000BF1C46DB68891A93B169
:102DA0001A699142F8D2B3FA83F24FEA521EBEF189
:102DB000000FC0E90243016108D11A699860511AF5
:102DC000196103E00024C0E90243016104F10C0130
:102DD000002C08BF0CF14401086010BDC168002937
:102DE0001CBF82688A60C06840F27021C2F2000194
:102DF0004864704780B503F0EBF980BD80B503F0FF
:102E0000BDF980BD80B503F0D9F980BD80B503F070
:102E1000CBF903F0F1F980BD80B503F069F880BD0E
:102E200080B503F085F880BD80B503F015F803F098
:102E300093F880BD10B5044603F016F8204603F061
:102E400093F810BD80B503F027F803F09DF880BD1E
:102E500080B503F029F803F09FF880BD10B5044653
:102E600003F02AF8204603F09FF810BD80B503F068
:102E7000CBF880BD80B503F0CFF880BD80B503F0FE
:102E8000D3F880BD80B503F0D7F880BD80B503F0DE
:102E9000DBF880BDB0B50C46054600F059F8B5F931
:102EA0004006B5F9001682B201EE102A9FED202AE5
:102EB000B8EE411A31EE023A002888B248BFB0EEAF
:102EC000431A03EE100AB8EE433AE08933EE022AC1
:102ED000002948BFB0EE423A02EE100AB8EE422A8C
:102EE00021EE022A32EE032A81EE021A9FED112A08
:102EF00094ED013AA08921EE021A9FED0F2A30EEDF
:102F0000020A20EE030AB7EE002A30EE020A81EE32
:102F1000000A02EE100A94ED021AB8EE422A30EED0
:102F2000420A80EE010AB3EE091A30EE010AB0BD82
:102F3000000080C700008048333353C080B50B4683
:102F40004FF410514FF4507200F056F880BD00005D
:102F5000B0B52DED068BB0F954260C4691B200EEBB
:102F6000101A9FED1F1AB8EE40AA3AEE010A002A85
:102F700048BFB0EE40AA94F82010B0F8800600EEEA
:102F8000101AB0EE008AF8EE400AB0EE480AC0F31C
:102F900081250BF041FCB0EE409A00EE105AF8EE9D
:102FA000400AB0EE480A0BF037FC89EE000AB4F98B
:102FB0000200B4F9001001EE100AB8EEC11A2AEEB0
:102FC000000A30EE410A01EE101AB8EEC11A80EE86
:102FD000010A9FED041A30EE010ABDEC068BB0BD6C
:102FE000000080C733335340808A6FF006014006EB
:102FF00001EAE07070470000F0B583B0460048BABF
:10300000ADF80A0005201F4614460AF05DF942F2A9
:10301000AC30F1B20125C2F200000DF10A02022328
:10302000009501F0A7FE68B946F00100C1B242F276
:10303000AC3063000026C2F200003A46009601F070
:1030400073FE18B14FF0FF3003B0F0BD34B1B81EBD
:1030500030F8021F013C49BA0180F9D1002003B0C9
:10306000F0BD00002DE9F04182B005464FF00008A8
:103070004700080ACDF804808DF80400100A8DF886
:103080000600052014460E468DF805108DF8072021
:103090000AF01AF942F2AC30F9B2C2F2000001AA09
:1030A0000423CDF8008001F065FE20B14FF0FF3021
:1030B00002B0BDE8F081B1B241F27416C2F200066E
:1030C000284601223346FFF797FF3088001B18BFC0
:1030D0006FF0010002B0BDE8F0810000401A00F17D
:1030E0002101421CA0F11F030020032A38BF6FF00A
:1030F0000500032938BF6FF00500032B38BF6FF0C0
:1031000005007047000000002DE9F04F81B02DED63
:10311000088B82B0054601F529500190B5F84000B2
:10312000B5F9742088461B2101EB103602F40071BA
:10313000934600276FF39F2B4FF60043B7EB512FB9
:1031400090B2CFF6FF7318BF4BEA030B002AB5F815
:1031500072209FED611A6FF39F2200EE102A4FEA52
:10316000902AB8EE400A4FF6C07148BF41EA902A53
:10317000B7EB522F30EE011A18BFB0EE410A10EE35
:10318000100A0CF0C1FD074630460C460CF077FAE9
:103190009FED4F8B41EC110BB0EE480AF0EE680A40
:1031A0000AF012FD53EC102B384621460CF0F8F8CB
:1031B0000CF008F88146B5F972009FED481A81B20B
:1031C000890A00EE101AB8EE40AA002895F8760099
:1031D0003AEE010A48BFB0EE40AA00EE100A9FED99
:1031E00040BAB8EE400A7F2830EE0B1A88BFB0EE26
:1031F000410A95F87000082101EB101410EE100A36
:1032000009EE109A0CF080FD074620460E460CF0A1
:1032100036FA41EC110BB0EE480AF0EE680A0AF0FB
:10322000D3FC53EC102B384631460CF0B9F80BF0B8
:10323000C9FFB5F97610B7EE002A8AB2120A00EE7D
:10324000102AB8EE400A30EE0B1A002948BFB0EE43
:10325000410A9FED241AC8F81C0095F871002AEE67
:10326000011A31EE021A00F00F0410EE100A21EEDE
:10327000099A0BEB0A070CF047FD054620460E465F
:103280000CF0FDF941EC110BB0EE480AF0EE680AC3
:103290000AF09AFC53EC102B284631460CF080F8CB
:1032A0000BF090FFC8F818004FF4295048F8009030
:1032B000019880ED019AA0F808B042F64A2028F85B
:1032C000007002B0BDEC088B01B0BDE8F08F00BF0C
:1032D0000000000000000040000080C4000080C228
:1032E000000080C30000003C80B54FF47A71414378
:1032F00042F2AC30C2F2000001F0F6FD80BD0000E9
:1033000090F878009FED091A00EE100AB8EE400A16
:103310009FED072A7F2830EE011A88BFB0EE410AE0
:1033200020EE020A81ED050A704700BF000080C34D
:103330000000003DB0F966004FF4FF524FF46043C7
:1033400002EAD002002843EA4010A0F5005048BF2E
:1033500002F560420A8048807047000000000000CB
:103360002DE9F04F81B02DED108B86B01546B0EEF3
:1033700060BAB0EE408A8946834601F52954FFF7CA
:10338000E7FD58464946B0EE409AFFF783FD9FEDB2
:10339000F4EAB1EE00CAB0EE40AA30EE0E0AF0EE4A
:1033A0004C0A0BF039FAB0EE40DA3BEE0E0AF0EEC2
:1033B0004C0A0BF031FA99ED0A1A9FEDEA2AB7EEA2
:1033C00000CA21EE021A31EE0C1A8CEE012AB9F96C
:1033D0003C10B9F93E2099ED0C3A4FF07E50019027
:1033E000501A99ED0D4A30EE4D1A9FEDDFDA81EE5D
:1033F000081A04AA8DED002A02EE101AB8EEC22AAD
:1034000023EE022A03EE100AB8EEC33A24EE033A82
:10341000BBF9140632EE0C2A33EE0C3A8DED022A7B
:1034200022EE032A81B28DED032A02EE101AB8EEC5
:10343000422A0028B9F9100032EE0D3A48BFB0EE2A
:10344000432A03EE100AB8EEC33A83EE02EABBF851
:103450001016BBF8800602EE101ABBF85016B8EE34
:10346000422A8DED042A02EE101AB8EE422A8DEDA2
:10347000052A9FEDBE2A4009002100BF531893ED95
:10348000003A0431B4EE423AF1EE10FAC4BF33EE22
:103490000D3A83ED003A93ED003A04292EEE033AFB
:1034A00083ED003AEAD000F08008B4F90800BBEEE2
:1034B000095A02EE100AB8EEC23A99ED072A3AEE1E
:1034C00005FA9FEDE95A99ED064A2FEE022A32EEEF
:1034D0000C2A79EE058A22EE036A28EE843A33EE4E
:1034E0000C3AB4F90A1026EE035A9DED046A99F8D5
:1034F000210076EE45BA05EE101ACDED04BAB8EE0D
:10350000C55A9DED054A80451CBF94ED036A36EE11
:10351000055A70EE41CA22EE050A23EE000ADFEDDD
:10352000D3EA74EE40DA00270022CDED05DA08E098
:10353000E81980ED000A0437BAF5407F524600F0E2
:103540008981C2F34013BBF88266B8F1000F1846B8
:1035500002F0010118BF4840B04202F1010AEAD16D
:103560003BF91210A6468EB200EE106AB8EE400A81
:10357000002909EB420130EE0D1A48BFB0EE410AB6
:10358000B1F9406C09EB070101F5925494ED002A62
:1035900001EE106A01F5F2562FEE022A96ED003A7E
:1035A000B8EEC11A32EE0C2A22EE011A28EE832A56
:1035B00032EE0C2A99F8216021EE021A2EEE000A52
:1035C000B04530EE410A01D174462EE0961EF41744
:1035D00006EB9476541E4FEAA60C2E46E5171B0602
:1035E00004EB9575ACEB9202A2EBA5023546DE0D1D
:1035F0000124013E02EB9A02A4EBD3539EED052A6F
:1036000003EE106AB8EEC33A5A4322EE032A52B2CE
:103610009EED041A30EE020A02EE102AB8EEC22A1B
:1036200021EE021A744630EE410A80EE080AC0F11B
:10363000010201EE102A02EE100AB8EEC11AB8EE2D
:10364000C22A2BEE813A2DEE824A99ED055A34EECC
:10365000033A23EE053A70EE43FA94ED000A94ED36
:10366000013A20EE010A23EE021A30EE010A91ED32
:10367000101A99ED092A25EE000A31EE400A2FEEC4
:10368000021A31EE0C1A21EE009A19EE100A0CF013
:103690003BFB41EC100B9FED721B0AF095FAB0EE6C
:1036A00040AA2CEE890A3FEE800A10EE100AF0EED6
:1036B00060AA0CF029FB02460B4651EC1A0B0CF0E9
:1036C0002DF80BF07FFD0BEE100AB0EE4B0A0BF05D
:1036D000D5FBB4EE400AB0EE40AAF1EE10FA80F14C
:1036E0009A80B0EE4A0A0BF0C9FBB4EE400AF1EE44
:1036F00010FA80F1978099ED0B1A20EE010A21EE65
:103700002E1A31EE0C1A29EE011A30EE010A8FEE54
:10371000800A3CEE80BAB0EE4B0A0BF0AFFBB4EE81
:10372000400AB0EE40AAF1EE10FA80F18080B0EECF
:103730004A0A0BF0A3FBB4EE400AF1EE10FA7DD674
:10374000B9F93A0030EE2E0A01EE100AB8EEC11AAD
:10375000B4EE410AF1EE10FA0ADA002022E000BFCE
:103760003393884300002042000080C700FEFF46DC
:10377000B9F93C0001EE100AB8EEC11AB4EE410AE4
:10378000F1EE10FA01DA01200CE0B9F93E0001EE89
:10379000100AB8EEC11AB4EE410AF1EE10FAACBF4D
:1037A00003200220694601EB800191ED001A09EB2C
:1037B000800109EB4000B0F9380091ED0A2A03EED0
:1037C000100AB8EEC33A30EE430A22EE000A29EEA0
:1037D000011A30EE0C0A21EE000A8FEE800A3CEE50
:1037E00080BAB0EE4B0A0BF049FBB4EE400AB0EEE3
:1037F00040AAF1EE10FA26D6B0EE4A0A0BF03EFBD4
:10380000B4EE400AF1EE10FAFFF592AEB0EE4A0ABD
:103810000BF034FB8CE6B0EE4B0A0BF02FFBB0EE56
:1038200040AA5EE7B0EE4A0A0BF028FB63E7B0EE71
:103830004B0A0BF023FBB0EE40AA78E7B0EE4A0A41
:103840000BF01CFB7CE7B0EE4B0A0BF017FBB0EE65
:1038500040AAD1E706B0BDEC108B01B0BDE8F08FF7
:103860000000000000000840333353C0339388C386
:1038700080B5B0F96A3042F64C2201EB020C03F03D
:103880003F0200EE102A9FED1F1A1FFA83FEB8EECA
:10389000400A1F2A30EE011ACEF3841288BFB0EE20
:1038A000410A01EE102A9FED182AB8EE411A0F2A9C
:1038B00031EE023A4FEADE2288BFB0EE431A03EE41
:1038C000102AB8EE433A33EE022A002B48BFB0EE7E
:1038D000423AB6EE002A21EE021A9FED0C2A808AA7
:1038E00020EE020A8022B4EE002A22EA101023EE13
:1038F000022A81F821008CED000A8CED011A8CED72
:10390000022A80BD000080C2000000C20000803D8D
:10391000B0F8600008827047B0F978009FED0A1A8D
:1039200082B2120A00EE102AB8EE400A9FED072A72
:1039300030EE011A002848BFB0EE410A20EE020A1C
:1039400081ED090A704700BF000080C30000003904
:1039500010B54FF6D873B0F87E208B63B0F87E3088
:10396000C2F30132C3F303148C8742EA820C90F84D
:103970007FE04FEA4C020EF00F0C04FB02F38B8742
:103980000CFB02F314FB0232CA87B0F87E20B0F8B9
:103990007A4002F00F02083201239340E2B200EEB7
:1039A000102AB8EE400A240AB0F87C0081ED0A0A19
:1039B00000EE104AB8EE400AC4B281ED0B0A00EEE8
:1039C000104AB8EE400A000A81ED0C0A00EE100A17
:1039D000B8EE400A81ED0D0A00EE103A9FED101A84
:1039E0009FED102A01F12802B8EEC00A002000BFA6
:1039F000111891ED003A0430B4EE413AF1EE10FAAC
:103A0000C4BF33EE023A81ED003A91ED003A10283E
:103A100083EE003A81ED003A08BF10BDE8E700BF31
:103A20000000FE42000080C3B0F964209FED181A28
:103A300093B29B0A00EE103AB8EE400A30EE011A3B
:103A4000002A6FF39F2248BFB0EE410A01EE102A10
:103A50009FED102A0023B8EE411AB3EB522F31EE3E
:103A6000022A18BFB0EE421A028C9FED0B3AB4EE58
:103A7000002AB0F86200920B20EE030A21EE021A2F
:103A8000083281ED010A81ED021A8881CA817047EE
:103A9000000080C2000080C400008039F0B581B011
:103AA0000C4605466E4600BF28464FF400410122F1
:103AB0003346FFF7A1FA002846D1BDF80000000701
:103AC000F2D500276E4600BF28464FF40041302251
:103AD000FFF7C8FA01301ED028464FF480614FF43A
:103AE00050722346FFF788FA70BB28464FF4004116
:103AF00001223346FFF780FA30BBBDF80000791C85
:103B00000007CFB201D5052FDED3042F07D96FF000
:103B1000070001B0F0BD4FF0FF3001B0F0BD0DF176
:103B20000203284648F20D010122FFF765FABDF8AD
:103B30000210BDF80020A4F8801602F00701A4F8D6
:103B40008216002808BF084601B0F0BD0068704723
:103B50002DE9F04F81B02DED088BBEB0814630F8D5
:103B6000422F0DF1980A039230F8022C884602F099
:103B70000F0CC2F3031EC2F30321120BAAF11003B0
:103B80000626029130F8025F013E05F00F0143F86E
:103B9000101FC5F30311C5F303244FEA1535C3E91C
:103BA0000114DD60EED102F11E0000225AF822302D
:103BB000082BA4BFA3F110014AF822100132182AE1
:103BC000F4D106AF09F14E02A7F11003082600BF99
:103BD00032F8021F013E01F00F0543F8105FC1F3F8
:103BE0000315C1F303244FEA1131C3E90154D9602D
:103BF000EED1002257F82230082BA4BFA3F1100108
:103C000047F822100132202AF4D1012101FA0CF1E7
:103C100000EE101ACDF804E0B8EEC0AA0BF02FFDAC
:103C200041EC180B9FED34BA9FED319B019F08F1D9
:103C30003C0209F18008002004905AF82000029903
:103C40004FF0000B88400399914600EB010A059262
:103C500038F81B0009F10406C0F3051000EE100A45
:103C60001F28B8EE400A06A830EE0B1A88BFB0EE47
:103C7000410A50F82B0020EE0A0AB840504401EEE9
:103C8000100AB8EEC11A30EE010A10EE100A89EDE2
:103C9000010A0CF039F8B0EE490AB0EE481AF0EE1D
:103CA000690AF0EE681A04460D4609F08DFF53ECE0
:103CB000102B204629460BF073FB0BF083FA0BF117
:103CC000010BC9F80400BBF1200FB146C0D1049824
:103CD000059A01308032182808F140080DF1980A41
:103CE000AAD13EB0BDEC088B01B0BDE8F08F00BF9B
:103CF0000000000000000040000080C22DE9F04FED
:103D000083B042F6582E0C4671444FF0FF3244F80F
:103D10000E200A61CA608A604A6000F180020023B6
:103D200042F6622C002500200BE000BFC9071EBF31
:103D300004EB470121F80C3001350133B3F5407F26
:103D40000FD086B2042E0CD8AFB2042F09D832F8A7
:103D500013100029EAD104EB460121F80E3001309E
:103D6000EBE786B2042E04D96FF0020003B0BDE881
:103D7000F08F1FFA85FABAF1040F04D96FF003002F
:103D800003B0BDE8F08F0AEB0601042904D96FF0F7
:103D9000040003B0BDE8F08F0004029020D042F68A
:103DA0005A2027184FF0000842F6582104EB48002B
:103DB00000EB0109414600BF01F1010BB34509D2F7
:103DC000B9F8000037F81110FFF788F900285946B4
:103DD000F2D04AE008F10108B04542F65821E5D199
:103DE000280401901DD042F6642025184FF0000BE6
:103DF00042F6622904EB4B0000EB0908594600BF6C
:103E00004F1C574509D2B8F8000035F81110FFF7DC
:103E100065F900283946F3D027E00BF1010BD345B3
:103E2000E8D1029820B342F6622004EB00094FF07B
:103E3000000805E008F10108B0454FF0000014D07B
:103E400001980028F6D004EB480042F65821455A64
:103E50004F46D34639882846FFF740F928B9BBF1C9
:103E6000010B07F10207F5D1E4E703B0BDE8F08FDD
:103E7000002003B0BDE8F08F016070472DE9F04FDE
:103E8000B9B0044634F8222F0DF1840C34F8029CAA
:103E9000ACF11006C9F3031EC9F3032306270092F1
:103EA00034F8022F013F02F00F0546F8105FC2F30D
:103EB0000315C2F3032A4FEA1232C6E9015AF2602F
:103EC000EED109F00F0800225CF82250082DA4BFA3
:103ED000103D4CF822500132182AF5D10DF1040C96
:103EE00000F12E09ACF110074FF0080A39F8026F03
:103EF000BAF1010A06F00F0247F8102FC6F30312B9
:103F0000C6F3032B4FEA1636C7E9012BFE60EDD14D
:103F1000DDF800A000229B465CF82260082EA4BFBA
:103F2000103E4CF822600132202AF5D101F544619F
:103F300080304FF000096FF03F0700BF21AA52F810
:103F40002920002602FA0BF2524400BF30F9165025
:103F5000ABB29C0A002D48BF47EA93245CF8263098
:103F600004FA08F403FA0EF31344234421F816303C
:103F70000136202EEAD109F101094031B9F1180FBB
:103F800000F14000DAD139B0BDE8F08F0000000048
:103F90002DE9F04F81B02DED048B82B0B0F968208F
:103FA0000C4691B20B0B002A48BFF0338DF8043059
:103FB000C1F30323072BC1F3031188BFF0338DF83E
:103FC0000630072988BFF0318DF8051002F00F0187
:103FD000072988BFF03190F871008DF8071000F0C4
:103FE0000F000BF04CFB41EC180B41F63C609FEDD1
:103FF000249B27184FF0000B0DF1040A4FF0000925
:10400000002600970BEB0600C0F3401100F0010002
:1040100061F347001AF9000007F1040800EE100AE6
:10402000B8EEC00A87ED010A0BF012FBB0EE490AA8
:10403000B0EE481AF0EE690AF0EE681A04460D4632
:1040400009F0C2FD53EC102B204629460BF0A8F9CD
:104050000BF0B8F801367860202E4746D2D1009F89
:1040600009F101098037B9F1180F0BF1200BC7D105
:1040700002B0BDEC048B01B0BDE8F08F00BF00BF03
:1040800000000000000000402DE9F04F81B02DED50
:10409000088B84B00446B0F86C000D46010A8DF818
:1040A0000C10B4F86E10B4F870208DF80E00080AE9
:1040B0008DF80D008DF80F10D0B2082101EB101013
:1040C00002F00F01012202FA01F100EE101AB8EE1F
:1040D000C0AA0BF0D4FA41EC180B41F23C209FED42
:1040E000329B05EB000804F1800B0026BAEE00BA03
:1040F0000DF10C09002000BF00270190CDF80880C9
:104100003BF81720F019C2F3420200EE102AB8EE75
:10411000400A032A30EE0B1A88BFB0EE410AC0F302
:10412000401100F0010020EE0A0A88ED010A61F357
:10413000470019F9000008F1040A01EE100AB8EE70
:10414000C11A30EE010A10EE100A88ED010A0BF0D8
:10415000DBFDB0EE490AB0EE481AF0EE690AF0EE67
:10416000681A04460D4609F02FFD53EC102B20462B
:1041700029460BF015F90BF025F80137C8F80400B3
:10418000202FD046BCD10198DDF80880013008F11D
:104190008008203618280BF1400BADD104B0BDECDF
:1041A000088B01B0BDE8F08F000000000000004067
:1041B000B0B50C460546FEF717FF002818BFB0BD86
:1041C00028462146FFF7B6F828462146FFF72CFC83
:1041D00028462146FFF79CFB28462146FFF790F82A
:1041E0002846214600F026F828462146FFF794FB92
:1041F00028462146FFF7ACFB28462146FFF7A8FCDE
:1042000028462146FFF73AFE28462146FFF73CFFA5
:1042100028462146FFF7BCFE28462146FEF774FFDC
:1042200028462146FFF724FB28462146FFF766FD76
:10423000B0BD0000B0F87000C0F3013081F820007C
:104240007047000080B590F90000421C06D011B103
:1042500000F0EAF880BD00F061F980BD02A008A17D
:10426000202203F009FF00BF6F626A2D3E70696E65
:1042700020213D202850696E4E616D65294E430016
:104280002E2F6D6265642D6F732F74617267657474
:10429000732F5441524745545F4E4F524449432F68
:1042A0005441524745545F4E524635785C677069B9
:1042B0006F5F6F626A6563742E68000080B590F965
:1042C0000000421C06D011B100F0BCF880BD00F027
:1042D00033F980BD02A008A1202203F0CDFE00BF6B
:1042E0006F626A2D3E70696E20213D202850696EF4
:1042F0004E616D65294E43002E2F6D6265642D6FF2
:10430000732F746172676574732F5441524745541B
:104310005F4E4F524449432F5441524745545F4EDC
:10432000524635785C6770696F5F6F626A65637467
:104330002E68000010B5044600F0E2FC00B110BD8C
:10434000204600F0E5FC002818BF10BD00F034F84E
:1043500041F27810C2F2000010BD000080B545F6B1
:10436000FC40C2F200000068002808BF80BD4FF08A
:10437000FF3105F0D9FE80BD80B545F6FC40C2F2A4
:1043800000000068002808BF80BD4FF0FF3105F035
:10439000CBFE80BD80B540F21422C2F2000252F87A
:1043A00020308B4204D0FCF73DF80921016080BD2C
:1043B000002142F8201080BD80B540F2A040C2F23A
:1043C00000000078BFF35F8FC00700D080BD40F2CF
:1043D000A040C2F2000001F06FFE002808BF80BDBF
:1043E00041F2781040F23051C2F20000C0F20101F7
:1043F0004FF4165200F06EF940F2A040C2F20000F5
:1044000001F08EFE80BD0000002848BF704700F01C
:104410001F01012202FA01F14EF200124009CEF210
:10442000000242F82010704780B582B0019001A8C8
:1044300000F0ECF80199012202FA01F100F0D6F83F
:1044400002B080BD80B582B0019001A800F0ECF808
:104450000199012202FA01F100F0CCF802B080BD0E
:1044600080B545F6FC40C2F200000068002818BF85
:1044700005F0A4FE80BD000080B545F6FC40C2F208
:1044800000000068002818BF05F098FE80BD0000FD
:1044900080B505F0D9FD44F2D951C0F200010022E7
:1044A00001F03EF9411C02D005F0A4FD80BD40F6AC
:1044B000333103A0C0F20101892203F0DDFD00BF0A
:1044C0007469636B735F736C657074203C206F73E9
:1044D00057616974466F7265766572004EF61452C4
:1044E00000F00F01CEF20002114400F16042B0F181
:1044F000FF3F4FF0E000C8BF02F56441087070470D
:10450000B0B50C464542FBF78DFF056040F2142024
:10451000C2F20000002140F82410B0BD80B582B086
:10452000019001A800F072F80199012202FA01F14C
:1045300000F064F802B080BD80B582B0019001A89F
:1045400000F072F80199012202FA01F100F05AF824
:1045500002B080BD810707D441074FBF0121010789
:10456000092202EAE17100E0022110F00C0F00F0D4
:10457000040018BF01F5007141EA002070470000F7
:1045800010B541F2A400C2F2000001F09BFB01F063
:1045900085FA40F214200324C2F2000050F82410DF
:1045A00019B10134102CF9D11024102C06D3FBF7CB
:1045B00039FF182101604FF0FF3403E04FF0FF3165
:1045C00040F8241041F2A400C2F2000001F07AFB8E
:1045D00001F086FA204610BD40F27020C2F20000C1
:1045E000807A002818BF012070470000C0F8081525
:1045F00070470000C0F8081570470000C0F80C159F
:1046000070470000C0F80C157047000001682029B1
:1046100031BF4FF0A04001F01F01016040F20030B7
:1046200028BFC5F2000070470168202931BF4FF054
:10463000A04001F01F01016040F2003028BFC5F228
:104640000000704780B50A2001F0E0FB4FF0FF3119
:1046500001604160018180BD80B507F0EFFB80BD46
:1046600080B541F2CC01C2F200010968002918BFEF
:10467000884780BD002A04BF0020704710B545F66A
:104680001C50C2F200000C4607F096F92070012081
:1046900010BD00006FF01C00704700006FF01500A7
:1046A0007047000000207047F0B581B0144662B139
:1046B00045F61C554E1EC2F20005274616F8011F8E
:1046C000284607F0FDFA013FF8D1204601B0F0BDC1
:1046D00001207047F0B581B015460E46044600F043
:1046E000C9F845F68851C2F2000140F28C200968F1
:1046F000C0F201000830206059B945F61C57C2F2DB
:1047000000073846314607F0A1FA3846294607F037
:10471000D3F8204601B0F0BD80B500F0B5F801F047
:1047200071FB80BD4FF47A71484341F25971CDF26B
:10473000B711A0FB0101C1F34F207047F0B581B064
:10474000069F044608461D461646FFF7EBFF2080ED
:104750003046FFF7E7FF21886080A5800329A77115
:104760009CBF042121802188B1F5804F84BF4FF484
:104770008041218003289CBF042060806088B0F5C0
:10478000804F84BF4FF480406080204601B0F0BD70
:1047900080B502F0E5FD80BD80B5FFF753FD80BD1B
:1047A00010B5044600202070204602F0A9FD2046E6
:1047B00010BD000010B50446FFF7EEFF204610BD07
:1047C00080B5FFF7E5FF80BD6FF015007047000072
:1047D0006FF01800002918BF002070476FF0150017
:1047E0007047000080B50168896A884780BD000075
:1047F00070B50446006800210369204601229847ED
:10480000054600280DD420680021036920460222B5
:104810009847216806460B6920462946002298479A
:104820003546284670BD00000020704780B50168FD
:1048300001220B690021984780BD000080B5016806
:104840008969884780BD000080B503681B69984767
:1048500080BD0000704700000020704780B50168EF
:1048600000220B690021984780BD00006FF0150001
:104870007047000040F2E821C0F2010108310160F8
:1048800070470000FEDE00007047000080B54C302D
:1048900007F092F880BD000010B54C300C4607F0D0
:1048A0000FFA204610BD000010B500EB011000F11A
:1048B000B804204601F024FA002808BF10BD2046A5
:1048C00001F01AFA10BD0000B0B5044600680D46AC
:1048D00002682046904704F14C00294606F0ECFFA0
:1048E0002068C4F8D850416820468847B0BD000011
:1048F0007047000070B590F9DE1090F9DF2000F1EC
:104900004C060446304607F095F8D4E9395000F0DB
:10491000010151EA05020BD004EB600009B1016806
:104920004D5994F8EC1094F9ED2094F9EE30A84725
:10493000D4F8D810304606F0BFFF44F6A901C0F203
:1049400000013046224607F08BF970BD2DE9F04199
:1049500084B00446006815460268204688469047A1
:1049600015B994F8DC0020B9012D34D194F8DD009C
:1049700088B302F0BDF8404601F0C2F9064604EBE8
:10498000051000F1B807384601F0BAF94EB1002819
:1049900008BF07F027FA3846414600F0B7FC012669
:1049A00010E0002818BF07F051FAE8464046002101
:1049B000002600F07DFC3846414600F0A7FC40464A
:1049C00000F09AFC04F14C002946324607F05AF9EF
:1049D00002F0D0F805E004EB0510B830414600F0D5
:1049E00095FC206841682046884704B0BDE8F08106
:1049F000704700002DE9F04184B0044640F2443095
:104A00000E46C0F2010044F6F5010830C0F2000184
:104A1000002584E8230004F10C0021461F4690463F
:104A200001F0B8F804F128000021A58400F00CFC86
:104A300004F13800002100F007FC04F14C0055217E
:104A4000A4F84850A4F8B450FCF713FB84F8B05015
:104A5000C4E92955C4F8AC50B82500BF601900213D
:104A600000F026FC1035D82DF8D140F20110A4F842
:104A7000DC0084F8DE6000204FF6FF71B8266D463A
:104A8000C4F8D87084F8DF80C4E93800C4F8E800BE
:104A900084F8EC00A4F8ED10C4E93C00C4F8F80078
:104AA0002846002100F004FCA019294600F02EFC45
:104AB000284600F021FC1036D82EF1D1D4E901109F
:104AC000C20704EB600001D00268515888472046B5
:104AD00004B0BDE8F081000080B500F003F801F0FB
:104AE00091F980BD70B584B0044640F24430C0F204
:104AF0000100083000266D46206000BF28460021D6
:104B000000F0D6FBF2B220462946FFF71FFF2846E9
:104B100000F0F2FB0136012EF0D0C825601900F03C
:104B2000EBFB103DA82DF9D104F1380000F09EFBFD
:104B300004F1280000F09AFB04F10C0001F038F8B1
:104B4000204604B070BD000080B582B08446806904
:104B50000CF10801CDF800C007F0AEFF02B080BD37
:104B600080B501688968884780BD000080B582698A
:104B700000F10801104608F02DF880BD10B504467C
:104B800040F25C30C0F201000830206000200A468C
:104B9000C4E90200C4E90400A16144F66131C0F235
:104BA0000001104608F032F8204610BDFEDE00007D
:104BB00010B5044640F25C30C0F2010008302060BD
:104BC0002046FFF7D3FF204610BD000010B5044675
:104BD000FFF7D6FC00285EBF40F21421C2F20001AC
:104BE00041F8204010BD0000B0B50C46054601F06C
:104BF0007FFF2846214602F08FFB01F0BBFFB0BDCE
:104C000080B502F0ADFB80BD10B5044601F070FF29
:104C10002046002102F00EFB01F0ACFF10BD0000A9
:104C200080B5FFF74BFB80BD10B5044601F060FF77
:104C30002046012102F0FEFA01F09CFF10BD0000A9
:104C400010B582B00446DDF810C000202070204668
:104C5000CDF800C002F03AFB204602B010BD0000C3
:104C600010B50446FFF7DCFF204610BD80B5FFF706
:104C7000C7FF80BDB0B50F28C4BF0020B0BD40F253
:104C80001425C2F20005044655F82000022C07DC6A
:104C9000411C18BFB0BD2046FFF74CFB45F824006F
:104CA000B0BD000010B5044641F2A400C2F20000FD
:104CB00001F008F800F0F2FE40F214210020C2F2E8
:104CC0000001002251F82230A34208BF41F822001F
:104CD0000132102AF6D141F2A400C2F2000000F025
:104CE000F1FF00F0FDFE10BD10B5044601F000FF1D
:104CF000204610BD10B5044601F03CFF204610BD13
:104D00000020704780B50021FBF7A7FF80BD0000A1
:104D10000020704780B541F2DC00C2F2000000F0D4
:104D2000D1FF00F0BBFE80BD2DE9F04381B0064607
:104D3000006891460268DDF8208030461C460F4628
:104D40009047304600F03CF888F0010506F130004D
:104D500039464A462346009502F0D6FD316805469D
:104D6000496830468847281B18BF012001B0BDE8BC
:104D7000F08300002DE9F04381B0064600689146BB
:104D80000268DDF8208030461C460F4690473046CA
:104D900000F016F888F0010506F1300039464A4661
:104DA0002346009502F0CEFD31680546496830463D
:104DB0008847281B18BF012001B0BDE8F083000020
:104DC000B0B50446006801682046884741F20415E2
:104DD000C2F200052868A04205D0616F04F13000DE
:104DE00002F022FD2C602068416820468847B0BD53
:104DF00080B541F2DC00C2F2000000F063FF00F079
:104E00006FFE80BD70B584B01446012503A8002252
:104E100000230095FFF714FF02A82146002200237B
:104E20000095FFF70DFFFFF721FF30B103A8FFF753
:104E30001DFF012804D1002453E06FF0010450E06D
:104E400002AC20460021FFF7CFFE2046FFF7ECFE24
:104E50000A2500BF20460021FFF7C6FE204600219C
:104E6000FFF7FEFE052008F02FFA20460321FFF78A
:104E7000BBFE20460121FFF7F3FE052008F024FACF
:104E8000013DE7D103AD2846FFF7CEFE28460021BD
:104E90000024FFF7E5FE052008F016FA02AE3046C2
:104EA0000121FFF7DDFE052008F00EFA284601215A
:104EB000FFF7D6FE052008F007FA2846FFF7A4FE04
:104EC0003046FFF7A1FE3046FFF7D0FE38B103A809
:104ED000FFF7CCFE002808BF6FF0010401E06FF07F
:104EE0000104204604B070BDB0B5044600680D460C
:104EF00002682046904704F130002946656702F0B9
:104F000093FC206841F204114268C2F2000120467D
:104F10000C609047B0BD0000F0B581B0044640F28F
:104F20007030C0F2010008300E462060201D0021C4
:104F30001546002700F088F904F11400214600F01E
:104F400065FEA78504F1300738464421FCF791F847
:104F500048F2A060C0F2010021686067096820463D
:104F6000884731462A4684F8786084F87950FFF7FC
:104F700049FF94F9781094F97920384602F06CFCD6
:104F8000206841F204114268C2F2000120460C6020
:104F90009047204601B0F0BD80B500F003F800F066
:104FA00031FF80BDB0B5044640F27030C0F2010060
:104FB0000830254645F8040B04F1140000F034FED7
:104FC000284600F053F92046B0BD000080B500F53A
:104FD0008A7000F063FD80BD80B5FFF757FC80BD8F
:104FE00080B5FFF759FC80BD80B500F58A7000F0F0
:104FF00077FD80BDB0B51C46049B0546FFF7FAFC63
:10500000FC30214600F0A6F840F28830C0F20100E2
:1050100000F10801296000F128019430C5E93F1032
:1050200005F58A7000F082FD2846B0BD80B500F01D
:1050300003F800F0E7FE80BDB0B5044640F28830CA
:10504000C0F2010000F10801216000F12801943054
:105050002546C4F8000104F58A7045F8FC1F00F0ED
:105060006DFD284600F0AAF82046FFF73BFDB0BDD5
:1050700070470000F0B581B0054600680C46C16D70
:105080002846A71888472646BE4209D02868816D61
:1050900028468847411C18BF06F8010B0029F3D1A8
:1050A0002868016E28468847301B01B0F0BD00001B
:1050B0000020704700207047002070470020704794
:1050C00000207047F0B581B0054600681646C26DF5
:1050D00028460C4690470027BE420AD02868E15D6A
:1050E000426D28469047013007F10107F4D1E619D7
:1050F00000E0E6192868016E28468847301B01B099
:10510000F0BD00000020704782B0B0B582B0CDE99C
:105110000623044600680D46C26D2046904706A946
:105120006069019100210122FBF7E2FD6069019AAB
:105130002946FBF77FFA21680546096E2046884715
:10514000284602B0BDE8B04002B07047704700008A
:1051500070470000B0B582B0044600F0A9F940F2F3
:105160002440C0F2010000F108017430C4E90010CD
:1051700000250BA12046656100F034F8606120B184
:10518000FFF7C0FD204602B0B0BD40F2191005A1E6
:10519000C8F2010000220023009502F0B1FF00BF19
:1051A000772B000053747265616D206F626A206610
:1051B00061696C7572650000FEDE000010B5044682
:1051C00040F22440C0F2010000F1080100F1740235
:1051D000606921606260FBF771FD204600F080F994
:1051E00010BD000070B50D460446FFF7EFFC002827
:1051F00007D42946064601F0D9FD054618B12846D0
:1052000070BD002070BD30462146FFF7C3F8284628
:1052100070BD000080B502680846904780BD000060
:105220007047000009680160704700000022C0E973
:105230000022C0E902220968016040F24851C0F230
:105240000101C1607047000010B582B004460191B1
:1052500021B101A92046FFF7E9FF04E00020C4E9DD
:105260000000C4E90200204602B010BD10B504469B
:10527000C06810B1816820468847204610BD0000F4
:1052800080B50068804780BD7047000009680160F4
:10529000704700000022C0E90022C0E9022209682C
:1052A000016040F25451C0F20101C160704700003A
:1052B00010B582B00446019121B101A92046FFF743
:1052C000E9FF04E00020C4E90000C4E90200204630
:1052D00002B010BDB0B504460020C4E90000C4E926
:1052E0000200C8680D4618B142682046294690471A
:1052F000E9682046E160B0BD10B50446C06810B151
:10530000816820468847204610BD0000884208BFBB
:10531000704710B50C46FFF7EFFF2146FFF7DAFFA5
:10532000BDE8104070470000007B7047F0B581B0C9
:10533000044641F20C10C2F200000E4600F0C2FC1E
:1053400000F0ACFB41F20810C2F20000056800E07A
:105350006D68BDB1AF68002FFAD03846FBF7C9FDC4
:10536000B042F5D1384621463246FBF796FD00287B
:10537000EED141F20C10C2F2000000F0A3FC00F0EC
:10538000AFFB10E0072E05D10FA021460722FBF747
:1053900084FD58B141F20C10C2F2000000F092FC02
:1053A00000F09EFB0025284601B0F0BD41F20C1034
:1053B000C2F2000000F086FC00F092FB41F23410D3
:1053C000C2F200000568EEE764656661756C740002
:1053D00070B5044640F2A040C0F20100083000263B
:1053E000C4E9000641F20C10C2F200000D46A160B3
:1053F000227300F067FC00F051FB3DB141F2081050
:10540000C2F2000001680460616000E0666041F281
:105410000C10C2F2000000F055FC00F061FB2046C9
:1054200070BD000080B500F003F800F0EBFC80BD1B
:1054300010B5044640F2A040C0F2010008302060E0
:1054400041F20C10C2F2000000F03CFC00F026FB20
:10545000A06880B141F20811C2F200010868A042C0
:1054600007D000BF01464068A042FBD16068486099
:1054700001E06068086041F23410C2F20000016887
:10548000A14204BF0021016041F20C10C2F20000F1
:1054900000F018FC00F024FB2046FFF745FF08B1A0
:1054A000204610BD201FFFF7FDFB204610BD000069
:1054B000B0B50C460546FFF7DDF904302146002261
:1054C000FFF786FF40F2B040C0F2010000F1080192
:1054D00000F16402284629606A60B0BDFEDE00006B
:1054E00010B504460430FFF7A3FF2046FFF7CCF9C0
:1054F00010BD000010B5044600F00AF8002804BFF3
:10550000002010BD6068002818BF043810BD0000DE
:1055100080B5406830B1FFF707FF0138B0FA80F07E
:10552000400980BD002080BD10B5044600F010F891
:10553000002804BF002010BD6068002818BF043890
:1055400010BD00004068002818BF0120704700000F
:1055500080B5406828B1FFF7E7FEB0FA80F0400957
:1055600080BD002080BD00000068704770B50E4609
:1055700000250446C0E9005510A13046FBF77FFC2A
:105580003044206001E000BF59B122680021137847
:10559000002BF9D001322F2B1CBF013501212260D5
:1055A000F2E735B12946FFF7C1FE014620466160AA
:1055B00070BD03A005A12A2202F05EFD2F000000AD
:1055C0006C656E20213D2030000000002E5C6D6275
:1055D00065642D6F735C706C6174666F726D5C7363
:1055E0006F757263655C46696C65506174682E63A3
:1055F0007070000010B541F27014C2F2000420680F
:1056000008B1206810BD01F07BFD014641F2381061
:10561000C2F2000000F0ACF92060206810BD00006C
:1056200070B582B0044600F071FBF0B901AD00BF67
:10563000204600F021F82846FFF756FB204600F0F0
:1056400065FBA0B90646204600F026F8002818BFE2
:10565000FFF702F82846FFF74DFB36B92046BFF3A7
:105660006F8F00F053FB0028E2D002B070BD01A89C
:10567000FFF740FB02B070BD80B5D0E9002302EA1D
:105680000300013008BF80BD41F27010C2F200007B
:10569000006800F09FF880BD80B5D0E900010840A7
:1056A000013007D041F27010C2F20000006800F033
:1056B0003FFB80BD012080BD10B50446DDE902102E
:1056C000C4E90023C4E90210FFF794FF204610BD8F
:1056D00010B541F27011C2F2000109680446084693
:1056E00000F058F8204610BD10B586B09C46034621
:1056F00002AC009220461A460B46CDF804C0FFF7D4
:10570000DBFFFFF78DFF2046FFF7E2FF41F270104D
:10571000C2F20000006800F0D9F806B010BD000029
:105720002DE9F04190460D460646FFF763FF00F075
:1057300035FB074641F27010C2F2000000680C46CB
:1057400000F028FB3F1A64EBE071B81941F1000149
:105750002A464346FFF7C8FFC01BBDE8F0810000A2
:1057600010B5044690F830000121002884F8341068
:1057700018BF00F091F8204600F06EF810BD000050
:1057800010B50446FFF7F2F9002084F8340000F069
:1057900095F810BD10B5044690F8340078B920464D
:1057A000FFF7E4F994F8351000200029A4F831003F
:1057B00008BF10BD84F8350006F048FB10BD40F26C
:1057C000B66040F2C061C0F20100C0F20101912256
:1057D00002F052FC70B5044690F8340080BB94F897
:1057E0003100002818BF70BD20461E46154600F047
:1057F0006DF8401B71EB06001ED24FF47A70A5FBCA
:10580000005106FB001694F835000121A4F8311070
:1058100048B9A069006890F8200020B9012084F8F8
:10582000350006F0DFFA002084F8330020462A46CF
:105830003346FFF789F970BD012084F8320070BD4E
:1058400040F2B66040F2C061C0F20100C0F2010156
:105850005B2202F011FC000080B5D0E9081311F5BD
:105860007A7243F10003FFF76FF980BD4FF0FF300C
:105870007047000080B5D0E90A31D0E908C2013391
:1058800041F1000E1CF57A7100F1200042F1000296
:1058900080E80E4080BD00004EF60450CEF20000BD
:1058A0004FF080610160704780B53030012101F018
:1058B000E3F8002818BFFFF7EFFF80BD4EF6045055
:1058C000CEF200004FF000710160704770B50446E1
:1058D00090F83400E8B994F83100D0B9204600F0CF
:1058E0002BFA4FF47A7C0023A0FB0CE284F83030D2
:1058F00001FB0C2CD4E90832D4E90A5613EB0E0351
:1059000042EB0C0240197141C4E90832C4E90A01B2
:1059100070BD40F2E76040F2C061C0F20100C0F229
:105920000101E12202F0A8FB10B5044690F8310015
:1059300030B194F83300002184F8311098B110BDD3
:1059400094F83400002808BF10BD94F830000130EE
:1059500084F83000FFF7A0FF2046FFF78BFF2046BA
:10596000FFF77AFF10BD012084F8320010BD00005F
:1059700010B50446FFF702F940F21C50C0F20100D6
:1059800000F10801A069216007F012F904F1200379
:10599000002207C32046C4E90B22A28610BD0000E6
:1059A00080B500F003F800F02DFA80BD10B5044674
:1059B00040F21C50C0F20100083020602046FFF782
:1059C000DFFE2046FFF7E6FE2046FFF7F1F810BDA8
:1059D00080B504F0CBFA002808BF80BD40F67C31CA
:1059E00002A0C0F20101C12202F046FB737461748F
:1059F0007573203D3D206F734F4B000010B584B090
:105A00000446002020620DA0002918BF084600901F
:105A1000201D02901C2003900B200190684604F08A
:105A2000B5FB206010B902F003FD08B104B010BD51
:105A300009A012A1382202F01FFB00BF6170706C38
:105A400069636174696F6E5F756E6E616D65645FC9
:105A50006D757465780000005F6964207C7C206D42
:105A60006265645F6765745F6572726F725F696EAD
:105A70005F70726F67726573732829002E5C6D62A8
:105A800065642D6F735C72746F735C736F75726392
:105A9000655C4D757465782E63707000B0B582B02A
:105AA000054600684FF0FF3104F03EFB88B1044624
:105AB00002F0BEFC80B940F6E91140F21510002555
:105AC000C0F20101C8F2020022460023009502F054
:105AD00017FB286A01302862002002B0B0BD000028
